:100000000C942E000C944B000C944B000C944B0061
:100010000C944B000C944B000C944B000C945E0A17
:100020000C944B000C944B000C944B000C944B0024
:100030000C944B000C944B000C944B000C944B0014
:100040000C944B000C944B000C944B000C944B0004
:100050000C944B000C944B000C944B0011241FBECD
:10006000CFEFD4E0DEBFCDBF11E0A0E0B1E0E6E22B
:10007000F6E102C005900D92A630B107D9F714E061
:10008000A6E0B1E001C01D92A038B107E1F70E94DF
:10009000D80A0C94110B0C9400000F931F93CF936C
:1000A000DF93FC018081882319F4C0E0D0E005C013
:1000B0000580F681E02DC681D7818E01045F1F4F38
:1000C000C8010E94890287E391E0B8010E942B02D7
:1000D00020E0E0910601F09107019E89868998173A
:1000E00008F021E0822FDF91CF911F910F910895A9
:1000F000FF920F931F93CF93DF9399E0F92E28C0BF
:10010000F89480913701882319F4C0E0D0E006C04C
:10011000E0913C01F0913D01C681D781CE010C9662
:100120000E94890278948E010E5F1F4FC8010E94C1
:1001300089029E8980910801891710F49093080123
:100140009F9DC0011124815F9E4FB8010E942B0228
:10015000809137018823A1F60E949C052091090116
:1001600030910A01821B930B90930C0180930B0139
:1001700089E0F82E54C0019690930E0180930D01F2
:100180002150304030930C0120930B01892BC9F58D
:1001900020913301309134018091350190913601E5
:1001A00090933401809333013093360120933501CD
:1001B00028C020910D0130910E018A819B81281762
:1001C000390768F1F8948E010E5F1F4FC8010E9435
:1001D00089028C899D89892B21F0CE010C960E9481
:1001E000890278949E8980910801891710F4909370
:1001F00008019F9DC0011124815F9E4FB8010E949C
:100200002B02E0913301F09134018081882339F091
:100210000580F681E02DC681D781209751F6209187
:100220000B0130910C0180910D0190910E0121156F
:10023000310509F0A0CF90930A01809309019091B4
:10024000080129E006C0992319F41092080132C070
:100250009150929FD0011124A15FBE4F8C918823B1
:1002600091F3909308011196ED91FC911297028001
:10027000F381E02D1296FC93EE931197CD01039636
:10028000E817F90731F48281938112969C938E933B
:1002900011971196ED91FC9112970680F781E02D50
:1002A000F0930701E093060120813181CF01678936
:1002B000F9010995DF91CF911F910F91FF9008955A
:1002C0000F931F93CF93DF93EB0100910D011091DA
:1002D0000E01080F191F80910601909107010296E7
:1002E0000E948902E0910601F091070113830283C5
:1002F00080910D0190910E01BF016E5F7F4F081735
:10030000190728F4809135019091360104C080913D
:100310003301909134010E945402209749F060917A
:10032000060170910701645F7F4FCE010E94540265
:10033000DF91CF911F910F910895AF92BF92CF920D
:10034000DF92EF92FF920F931F93CF93DF936C0195
:10035000B62EA42E8AE190E00E945809EC01009785
:1003600011F48FEF59C08091060190910701892BFC
:1003700021F5D0930701C09306018FE091E00E9420
:10038000170288E191E00E94170221E2E22E21E0AB
:10039000F22EC7010E9417020AE211E0C8010E9472
:1003A000170287E391E00E941702F0923401E09275
:1003B00033011093360100933501EB2CBB2011F073
:1003C000EE24E394198E188EEE8AAF8AFE01C19254
:1003D000D1928F01CF010E942702CE010C960E947C
:1003E0002702D987C887DB8BCA8B84E090E08E19FF
:1003F00091099D878C879E8980910801891710F447
:100400009093080189E0989FC0011124815F9E4F5D
:10041000B8010E942B0281E0DF91CF911F910F91D3
:10042000FF90EF90DF90CF90BF90AF900895FC01C8
:100430009C012D5F3F4F328321838FEF9FEF948389
:100440008383368325833087278310820895FC01B8
:10045000118610860895CF93DF93AC01DB01EC0188
:1004600029813A81F9018281938113969C938E931D
:10047000129789819A8115969C938E931497028086
:10048000F381E02D75836483E9017B836A83FA013C
:100490007283618319965C934E93189780818F5F66
:1004A0008083DF91CF910895CF93DF939C01EB017F
:1004B000488159818FEF4F3F580721F4F901A781F7
:1004C000B08510C0D901139604C012960D90BC914E
:1004D000A02D1296ED91FC91139780819181481780
:1004E000590798F71296ED91FC911397FB83EA83D5
:1004F000D583C483BD83AC831396DC93CE931297CC
:1005000039872887F90180818F5F8083DF91CF91C0
:100510000895CF93DF93DC011296ED91FC91139730
:1005200014968D919C911597958384831496CD9103
:10053000DC911597FB83EA831896ED91FC9119974E
:10054000818192818A179B0711F4D283C183199606
:100550001C921E921897808181508083DF91CF91E9
:100560000895FC010FB6F8940F92828D0F900FBE84
:100570000895FC01828D0895FC01828D90E088230E
:1005800009F491E0892F0895FC01928D20E0838D7C
:10059000981709F421E0822F08950F931F938C017F
:1005A000FC01808191810E945209C8010E94520978
:1005B0001F910F9108950F931F93CF93DF93EC0139
:1005C000FB018A018A8D882381F148815981411577
:1005D0005105A9F08C8D2E813F81280F311D3F835D
:1005E0002E838A819B812817390710F05F834E8301
:1005F0004C8D6E817F81CF0150E00E94F20A8A8D7E
:1006000081508A8F8D8D8F3F69F48885882361F0B2
:10061000CE0108960E943506882331F081E0F8016A
:10062000808303C08F5F8D8F81E0DF91CF911F9119
:100630000F910895CF93DF93EC01842F4C8D4423C9
:10064000A1F18823B1F48C819D8150E00E94F20ACF
:100650008C8D2C813D81280F311D3D832C838A8117
:100660009B812817390708F1888199819D838C83A4
:100670001CC08E819F8150E00E94F20A8C8D90E018
:1006800044275527481B590B8E819F81840F951F46
:100690009F838E83288139818217930730F48A8162
:1006A0009B81840F951F9F838E838A8D8F5F8A8F96
:1006B000DF91CF9108950F931F93CF93DF93EC01B8
:1006C0008A019A8D8B8D981710F080E017C0CE01AB
:1006D000422F0E941A038E8D8F3F69F489898823E7
:1006E00061F0CE0141960E943506882331F081E009
:1006F000F801808303C08F5F8E8F81E0DF91CF91FF
:100700001F910F9108950F931F93CF93DF93EC01E7
:100710000FB6F8940F928C010F5E1F4F0DC08989A0
:10072000882369F0C8010E943506882311F00E94D1
:1007300031068E8D81508E8F8E8D181684F38FEF3B
:100740008E8F0F900FBE0FB6F8940F928E01085F38
:100750001F4F0DC08885882369F0C8010E943506A7
:10076000882311F00E9431068D8D81508D8F8D8DE3
:10077000181684F38FEF8D8F0F900FBEDF91CF91FE
:100780001F910F9108957F928F929F92AF92BF9287
:10079000CF92DF92EF92FF920F931F93DF93CF934D
:1007A00000D000D00F92CDB7DEB78C01962E872EE9
:1007B0005D834C83722E91E1C92ED12CC00ED11EC7
:1007C00020E07E010894E11CF11C84E0A82EB12CED
:1007D000AC0EBD1E01C021E00FB6F8940F92F801D7
:1007E000828D882309F43EC0E680F78040815181E4
:1007F00041155105B1F0848D9701280F311D3783C4
:100800002683828193812817390710F05783468306
:10081000F801448D66817781892D982D50E00E94E2
:10082000F20A772071F4F801828D8150828F8085E1
:100830008823A1F0C80108960E943506813071F422
:100840000BC0F801F782E6828189882339F0C6015E
:100850000E943506882311F00E94610A0F900FBE96
:1008600081E04AC08C819D81892B19F40F900FBEC5
:1008700042C0222319F4C7010E94EC050F900FBE5D
:100880000E9496050FB6F8940F92F801858D8F3F60
:1008900009F4158EF801868D8F3F09F4168E0F909E
:1008A0000FBEC701B5010E94F7058823F9F40FB602
:1008B000F8940F92F801828D0F900FBE882381F477
:1008C0006C817D81C6010E94EE06C8010E948303EF
:1008D0000E942707882309F07ECF0E94610A7BCF00
:1008E000C8010E9483030E94270775CFC8010E9498
:1008F00083030E94270780E00F900F900F900F90C6
:100900000F90CF91DF911F910F91FF90EF90DF90AB
:10091000CF90BF90AF909F908F907F9008957F92DF
:100920008F929F92AF92BF92CF92DF92EF92FF92FF
:100930000F931F93DF93CF9300D000D00F92CDB7CA
:10094000DEB78C016B015D834C83722E48E0E42E90
:10095000F12CE80EF91E20E05E010894A11CB11CE8
:1009600034E0832E912C8C0E9D1E01C021E00FB629
:10097000F8940F92F801928D838D9817A8F4C8010E
:10098000B601472D0E941A03F8018189882341F09E
:10099000C80141960E943506813011F40E94610A17
:1009A0000F900FBE81E04CC08C819D81892B19F482
:1009B0000F900FBE44C0222319F4C5010E94EC051C
:1009C0000F900FBE0E9496050FB6F8940F92F80193
:1009D000858D8F3F09F4158EF801868D8F3F09F4C0
:1009E000168E0F900FBEC501B4010E94F705882333
:1009F00009F50FB6F8940F92F801928D0F900FBE83
:100A0000F801838D981781F46C817D81C7010E9464
:100A1000EE06C8010E9483030E942707882309F07D
:100A2000A5CF0E94610AA2CFC8010E9483030E9441
:100A300027079CCFC8010E9483030E94270780E0FC
:100A40000F900F900F900F900F90CF91DF911F910B
:100A50000F91FF90EF90DF90CF90BF90AF909F905D
:100A60008F907F9008958F929F92AF92BF92CF9276
:100A7000DF92EF92FF920F931F93CF93DF93982E05
:100A8000862E882309F442C08FE190E00E94580925
:100A90008C01EC010097E1F1C92CDD24A82CBB24CA
:100AA000AC9C7001AD9CF00CBC9CF00C1124C701F7
:100AB00001960E9458099C0199838883009719F137
:100AC000E80EF91EFB82EA821A8E9D838C830894BD
:100AD000C108D108CA9CC001CB9C900DDA9C900D36
:100AE0001124280F391F3F832E839B8E8C8E8FEF0E
:100AF0008D8F8E8FC80108960E941702C8014196FB
:100B00000E94170205C0C8010E945209C0E0D0E04F
:100B1000CE01DF91CF911F910F91FF90EF90DF9069
:100B2000CF90BF90AF909F908F9008958091460195
:100B30008F5F8093460108950FB6F8940F9220912D
:100B40004401309145010F900FBEC9010895809175
:100B50004901089580914601882351F081E08093F6
:100B6000420108958091470181508093470101C05F
:100B700099E0E0914701E99FF0011124E35BFE4F0A
:100B80008081882379F39091470189E0989FD00173
:100B90001124A35BBE4F1196ED91FC911297028038
:100BA000F381E02D1296FC93EE931197CD010396FD
:100BB000E817F90731F48281938112969C938E9302
:100BC00011971196ED91FC911297868197819093E0
:100BD0004101809340010895FC018091430180838D
:100BE0008091440190914501928381830895FC0195
:100BF000DB010FB6F8940F92909143018081981712
:100C000049F020914401309145018181928128175A
:100C1000390718F580914401909145012181328175
:100C20004D915C911197821B930B84179507A8F443
:100C30008091440190914501281B390B240F351FE9
:100C40002D933C9380914301808380914401909146
:100C500045019283818380E001C081E00F900FBE47
:100C6000089581E08093420108950F931F93CF93DD
:100C7000DF93FC018081882319F4C0E0D0E005C037
:100C80000580F681E02DC681D7818E01045F1F4F5C
:100C9000C8010E948902809146018823A1F48E0137
:100CA0000E5F1F4FC8010E9489029E8980914701F3
:100CB000891710F49093470189E0989FC00111248F
:100CC000835B9E4F02C087E891E0B8010E942B022F
:100CD000E0914001F091410120E09E8986899817BA
:100CE00008F021E0822FDF91CF911F910F9108959D
:100CF000FF920F931F93CF93DF9380914601882338
:100D000009F061C080914401909145010196909352
:100D10004501809344018091440190914501892BC4
:100D2000E9F58091830190918401209185013091B2
:100D300086013093840120938301909386018093F0
:100D40008501809143018F5F8093430127C02091EB
:100D50004401309145018A819B8128173907C0F1F0
:100D60008E010E5F1F4FC8010E9489028C899D89E8
:100D7000892B21F0CE010C960E9489029E898091D8
:100D80004701891710F4909347019F9DC0011124DA
:100D9000835B9E4FB8010E942B0202C089E0F82EAF
:100DA000E0918301F09184018081882389F0E091B2
:100DB0008301F09184010580F681E02DC681D78101
:100DC000209729F605C0809148018F5F80934801E4
:100DD000DF91CF911F910F91FF9008950F931F9373
:100DE0008B016091400170914101645F7F4F0E94CF
:100DF0005402809140019091410102960E94890223
:100E00008091440190914501800F911FE091400134
:100E1000F0914101938382832091440130914501F7
:100E20008217930728F4809185019091860104C070
:100E30008091830190918401609140017091410102
:100E40006E5F7F4F0E9454021F910F910895CF92C1
:100E5000DF92FF920F931F93DF93CF930F92CDB743
:100E6000DEB70FB6F8940F928091460181508093BF
:100E7000460180914601882309F05BC080914901B9
:100E8000882309F456C0198299E0F92E27C0C601BB
:100E90000C960E94890286010E5F1F4FC8010E94B6
:100EA0008902D60156969C9180914701891710F4CA
:100EB000909347019F9DC0011124835B9E4FB80111
:100EC0000E942B02E0914001F0914101D60156961B
:100ED0009C918689981710F0B1E0B98380918701C1
:100EE000882349F0E0918C01F0918D01C680D78074
:100EF000C114D10461F680914801882341F40CC0EB
:100F00000E94780680914801815080934801809129
:100F100048018823A9F707C0E981E13021F08091D9
:100F20004201813031F4109242010E94610A81E055
:100F300001C080E00F900FBE0F90CF91DF911F9105
:100F40000F91FF90DF90CF90089580914D018230F6
:100F5000E0F30E94610AF9CF0F931F939C01009761
:100F6000A1F1809146018F5F809346010091440179
:100F700010914501020F131F809140019091410192
:100F800002960E948902E0914001F0914101138391
:100F9000028380914401909145010817190728F4B4
:100FA000809185019091860104C080918301909188
:100FB000840160914001709141016E5F7F4F0E94FA
:100FC00054020E942707882311F40E94610A1F918E
:100FD0000F910895CF93DF93FC01EB0180914601BF
:100FE0008F5F8093460120813181C20FD31F809192
:100FF0004401909145018217930728F4C217D30743
:1010000028F020E00CC0C217D30740F080914401C3
:101010009091450120E08C179D0708F421E0D183D1
:10102000C083222329F180914001909141010296D1
:101030000E948902E0914001F0914101D383C28373
:101040008091440190914501C817D90728F48091F7
:1010500085019091860104C0809183019091840163
:1010600060914001709141016E5F7F4F0E94540278
:101070000E942707882311F40E94610ADF91CF9113
:101080000895F89410924A010E94020A08952F923E
:101090003F924F925F926F927F929F92AF92BF92D8
:1010A000CF92DF92EF92FF920F931F93CF93DF9334
:1010B0002C015B016A013901902E170181E290E059
:1010C0000E945809EC01009751F0C6010E9458098E
:1010D000988F8F8B009729F4CE010E9452098FEFD1
:1010E000B0C065EA70E0A6010E94FB0ACE014996F5
:1010F000B50148E050E00E94020B18A283E0891578
:1011000008F403E00E8B32E0A32EB12CAC0EBD1E12
:10111000C5010E942702CE010C960E942702D987A2
:10112000C88784E090E0801B91099D878C87DB8BCA
:10113000CA8B0894C108D1088F89988D8C0D9D1D8C
:10114000B201A3010E947F09998388830FB6F894A6
:101150000F92809149018F5F8093490180914901ED
:10116000813069F5D0934101C09340018DE491E055
:101170000E94170286E591E00E9417028FE591E038
:101180000E94170288E691E00E94170221E7E22EF2
:1011900021E0F22EC7010E9417020AE711E0C80100
:1011A0000E94170287E891E00E941702F0928401E2
:1011B000E092830110938601009385010FC0809116
:1011C0004A01882359F4E0914001F0914101868958
:1011D000981620F0D0934101C09340019E898091E0
:1011E0004B01891710F490934B0180914C018F5F54
:1011F00080934C019E8980914701891710F4909348
:1012000047018E8929E0829FC0011124835B9E4F94
:10121000B5010E942B020F900FBE2114310419F06A
:10122000F101D183C08380914A01882349F0E09184
:101230004001F09141018689891510F40E94610AEC
:1012400081E0DF91CF911F910F91FF90EF90DF90A0
:10125000CF90BF90AF909F907F906F905F904F9096
:101260003F902F900895EF92FF920F9385EA97E0B9
:1012700060E071E045E550E020E030E000E0EE2481
:10128000FF240E944708813049F4F89480934A0172
:1012900010924501109244010E94C7090F91FF90DE
:1012A000EF90089508951092910110929001089581
:1012B0000F931F93CF93DF938C010E94960580912B
:1012C0009001909191019801280F391F42E02E3E24
:1012D000340758F48217930740F4EC01CE56DE4FE2
:1012E000309391012093900102C0C0E0D0E00E94B1
:1012F0002707CE01DF91CF911F910F910895FC0137
:1013000091E1908322E2229383E38293629372932A
:10131000129280E88293129282E0829383E0829319
:1013200084E0829385E0829386E0829387E08293D3
:1013300088E0829389E0829380E18293929382E1B4
:10134000829383E1829384E1829385E1829386E1B3
:10135000829387E1829388E1829389E1829380E29C
:10136000829381E28293229383E282934293529307
:1013700086E2829387E2829388E2829389E2829373
:1013800080E3829381E382933197CF0108958BE0CC
:10139000809381008AEF90E0909389008093880089
:1013A000EFE6F0E0808182608083A0914001B091FF
:1013B0004101CD91CDBFDD91DEBFFF91EF91DF9176
:1013C000CF91BF91AF919F918F917F916F915F91DD
:1013D0004F913F912F911F910F91FF90EF90DF90D0
:1013E000CF90BF90AF909F908F907F906F905F90C5
:1013F0004F903F902F901F900F900FBE0F90089529
:1014000081E0089508950F920FB6F8940F921F92FD
:1014100011242F923F924F925F926F927F928F9200
:101420009F92AF92BF92CF92DF92EF92FF920F9373
:101430001F932F933F934F935F936F937F938F935C
:101440009F93AF93BF93CF93DF93EF93FF93A091BD
:101450004001B09141010DB60D920EB60D920E9461
:1014600078060E94AA05A0914001B0914101CD915A
:10147000CDBFDD91DEBFFF91EF91DF91CF91BF91A5
:10148000AF919F918F917F916F915F914F913F911C
:101490002F911F910F91FF90EF90DF90CF90BF9011
:1014A000AF909F908F907F906F905F904F903F9004
:1014B0002F901F900F900FBE0F9008950E94030A67
:1014C00018950F920FB6F8940F921F9211242F9235
:1014D0003F924F925F926F927F928F929F92AF92C4
:1014E000BF92CF92DF92EF92FF920F931F932F93B1
:1014F0003F934F935F936F937F938F939F93AF939C
:10150000BF93CF93DF93EF93FF93A0914001B091EE
:1015100041010DB60D920EB60D920E94AA05A09142
:101520004001B0914101CD91CDBFDD91DEBFFF9172
:10153000EF91DF91CF91BF91AF919F918F917F916B
:101540006F915F914F913F912F911F910F91FF905C
:10155000EF90DF90CF90BF90AF909F908F907F9053
:101560006F905F904F903F902F901F900F900FBE05
:101570000F900895FF920F931F93FF24F39402E0BE
:1015800013E0FBB884E690E00E94AC071BB884E649
:1015900090E00E94AC070BB984E690E00E94AC0793
:1015A0001BB984E690E00E94AC070E94610AE9CF73
:1015B000EF92FF920F938FEF8AB98AEB9AE060E087
:1015C00070E044E650E020E030E000E0EE24FF244C
:1015D0000E9447080E94330980E090E00F91FF903D
:1015E000EF900895FB01DC0102C001900D92415083
:1015F0005040D8F70895DC0101C06D934150504030
:10160000E0F70895FB01DC014150504048F00190A3
:101610000D920020C9F701C01D9241505040E0F7E3
:061620000895F894FFCFCD
:0616260049444C450000A0
:00000001FF
