:100000000C9446000C945D000C945D000C945D0013
:100010000C945D000C945D000C945D000C945D00EC
:100020000C945D000C945D000C945D000C945D00DC
:100030000C945D000C945D000C945D000C945D00CC
:100040000C945D000C945D000C945D000C945D00BC
:100050000C945D000C945D000C945D000C945D00AC
:100060000C945D000C945D000C945D000C945D009C
:100070000C945D000C945D000C945D000C945D008C
:100080000C945D000C945D000C945D0011241FBE67
:10009000CFEFD0E1DEBFCDBF11E0A0E0B1E0EAEEEE
:1000A000F0E000E00BBF02C007900D92A030B10756
:1000B000D9F70E946C000C9473000C94000029E1A5
:1000C00030E088B3809588BB80E197E2F9013197F1
:1000D000F1F70197D9F7F5CF87EC87BB0E945F0056
:0A00E00080E090E00895F894FFCF4F
:00000001FF
